8=FIX.4.4|9=260|35=W|34=1|49=QUICKFIX|50=QUICKFIX_GROUP2|52=20170619-09:09:26.203|56=QUICKFIX_USER2|55=OIL/USD|262=f8c2054b-a187-4383-a426-e02a8f640204|268=2|269=0|270=13004.5|299=3ad1102b-0fbc-4728-905a-f028d06e4ee6|269=1|270=13005.5|299=fef2dd5e-1653-4c3b-be15-cf06c4b5aa36|10=253|8=FIX.4.4|9=258|35=W|34=2|49=QUICKFIX|50=QUICKFIX_GROUP2|52=20170619-09:09:26.239|56=QUICKFIX_USER2|55=XAU/USD|262=88581a04-0c94-4c9d-ad8a-a440fffb85b1|268=2|269=0|270=1504.5|299=6bd70014-06e8-4061-ad7f-235d452608c9|269=1|270=1505.5|299=0818f1da-43c9-47e3-b97c-661f255d5fb1|10=041|8=FIX.4.4|9=254|35=W|34=3|49=QUICKFIX|50=QUICKFIX_GROUP2|52=20170619-09:09:26.258|56=QUICKFIX_USER2|55=XAG/USD|262=5aeba9cf-770e-47b9-9e9d-196b78ed3fed|268=2|269=0|270=44.5|299=5b7501a6-7599-4925-9992-9864a266cdfa|269=1|270=45.5|299=10313964-4777-4ed0-acc1-3934700d3cde|10=135|8=FIX.4.4|9=260|35=W|34=4|49=QUICKFIX|50=QUICKFIX_GROUP2|52=20170619-09:09:27.204|56=QUICKFIX_USER2|55=OIL/USD|262=f8c2054b-a187-4383-a426-e02a8f640204|268=2|269=0|270=13004.6|299=de818f71-5472-459d-a298-35e5f5131fe3|269=1|270=13005.6|299=7dd11f52-deaa-4b18-88ef-608945b33255|10=186|8=FIX.4.4|9=258|35=W|34=5|49=QUICKFIX|50=QUICKFIX_GROUP2|52=20170619-09:09:27.240|56=QUICKFIX_USER2|55=XAU/USD|262=88581a04-0c94-4c9d-ad8a-a440fffb85b1|268=2|269=0|270=1504.6|299=5a77b398-f558-4621-9b46-6ed6fba5e332|269=1|270=1505.6|299=f8a06ba2-a21f-4184-b952-d1a0be269c80|10=183|8=FIX.4.4|9=254|35=W|34=6|49=QUICKFIX|50=QUICKFIX_GROUP2|52=20170619-09:09:27.259|56=QUICKFIX_USER2|55=XAG/USD|262=5aeba9cf-770e-47b9-9e9d-196b78ed3fed|268=2|269=0|270=44.6|299=0c79ff73-d386-4462-9d6c-a5f579866b8a|269=1|270=45.6|299=f38b85b0-20bc-4219-9651-afd27a06a136|10=078|