8=FIX.4.4|9=102|35=A|34=1|49=QUICKFIX_USER2|52=20170619-09:08:40.494|56=QUICKFIX|57=QUICKFIX_GROUP2|98=0|108=15|141=Y|10=045|8=FIX.4.4|9=153|35=BE|34=2|49=QUICKFIX_USER2|52=20170619-09:08:41.329|56=QUICKFIX|57=QUICKFIX_GROUP2|553=MyFIX|554=123456|923=1b024c34-c863-434a-92b0-dca491c8d21e|924=1|10=227|8=FIX.4.4|9=172|35=V|34=3|49=QUICKFIX_USER2|52=20170619-09:08:41.345|56=QUICKFIX|57=QUICKFIX_GROUP2|262=88581a04-0c94-4c9d-ad8a-a440fffb85b1|263=1|264=1|146=1|55=XAU/USD|267=2|269=0|269=1|10=122|8=FIX.4.4|9=172|35=V|34=4|49=QUICKFIX_USER2|52=20170619-09:08:41.346|56=QUICKFIX|57=QUICKFIX_GROUP2|262=5aeba9cf-770e-47b9-9e9d-196b78ed3fed|263=1|264=1|146=1|55=XAG/USD|267=2|269=0|269=1|10=028|8=FIX.4.4|9=172|35=V|34=5|49=QUICKFIX_USER2|52=20170619-09:08:41.346|56=QUICKFIX|57=QUICKFIX_GROUP2|262=f8c2054b-a187-4383-a426-e02a8f640204|263=1|264=1|146=1|55=OIL/USD|267=2|269=0|269=1|10=117|8=FIX.4.4|9=84|35=0|34=6|49=QUICKFIX_USER2|52=20170619-09:08:56.378|56=QUICKFIX|57=QUICKFIX_GROUP2|10=185|8=FIX.4.4|9=84|35=0|34=7|49=QUICKFIX_USER2|52=20170619-09:09:11.378|56=QUICKFIX|57=QUICKFIX_GROUP2|10=178|