8=FIX.4.4|9=256|35=W|34=1|49=QUICKFIX|50=QUICKFIX_GROUP1|52=20170619-09:09:26.222|56=QUICKFIX_USER1|55=EUR/JPY|262=973060f7-cb13-45f4-8e46-39258930c247|268=2|269=0|270=104.5|299=21cd3c91-f80e-4780-84b6-b715a3e43326|269=1|270=105.5|299=7bcc8ba7-7119-4f9f-a144-e4217e85649c|10=176|8=FIX.4.4|9=254|35=W|34=2|49=QUICKFIX|50=QUICKFIX_GROUP1|52=20170619-09:09:26.226|56=QUICKFIX_USER1|55=USD/JPY|262=b2edf2e5-d35c-4ab6-aea5-5d1af2864160|268=2|269=0|270=81.5|299=c727163a-d86b-4ca4-9068-13ba07f32043|269=1|270=82.5|299=cecd7515-7867-4071-98c2-6c87914be213|10=086|8=FIX.4.4|9=252|35=W|34=3|49=QUICKFIX|50=QUICKFIX_GROUP1|52=20170619-09:09:26.227|56=QUICKFIX_USER1|55=USD/CHF|262=e502e5e7-1afd-4f66-b3e2-4c937f7c5d76|268=2|269=0|270=5.5|299=40c92dc5-4323-4bc0-98de-565212b08e5f|269=1|270=6.5|299=d717d873-bd0c-4d71-8663-0ebe5393a0a8|10=065|8=FIX.4.4|9=256|35=W|34=4|49=QUICKFIX|50=QUICKFIX_GROUP1|52=20170619-09:09:27.223|56=QUICKFIX_USER1|55=EUR/JPY|262=973060f7-cb13-45f4-8e46-39258930c247|268=2|269=0|270=104.6|299=60e78f1b-b669-4a79-85f1-ac7a328bce69|269=1|270=105.6|299=8a506895-ac36-438e-b22d-24fb2e3a621c|10=071|8=FIX.4.4|9=254|35=W|34=5|49=QUICKFIX|50=QUICKFIX_GROUP1|52=20170619-09:09:27.227|56=QUICKFIX_USER1|55=USD/JPY|262=b2edf2e5-d35c-4ab6-aea5-5d1af2864160|268=2|269=0|270=81.4|299=f307952c-cf68-48be-a984-dc924327e6ea|269=1|270=82.4|299=3b879ba4-4eb2-4377-9435-4a870681e2bf|10=053|8=FIX.4.4|9=252|35=W|34=6|49=QUICKFIX|50=QUICKFIX_GROUP1|52=20170619-09:09:27.228|56=QUICKFIX_USER1|55=USD/CHF|262=e502e5e7-1afd-4f66-b3e2-4c937f7c5d76|268=2|269=0|270=5.6|299=ff8618dd-add0-463c-a7bc-196e0f29a93b|269=1|270=6.6|299=bfc74496-abd4-467b-b945-54824ed5a42b|10=120|