8=FIX.4.4|9=102|35=A|34=1|49=QUICKFIX_USER1|52=20170619-09:08:40.471|56=QUICKFIX|57=QUICKFIX_GROUP1|98=0|108=15|141=Y|10=038|8=FIX.4.4|9=153|35=BE|34=2|49=QUICKFIX_USER1|52=20170619-09:08:41.328|56=QUICKFIX|57=QUICKFIX_GROUP1|553=MyFIX|554=123456|923=86482005-d93b-4d3f-bfdb-178d5fedc646|924=1|10=096|8=FIX.4.4|9=172|35=V|34=3|49=QUICKFIX_USER1|52=20170619-09:08:41.346|56=QUICKFIX|57=QUICKFIX_GROUP1|262=b2edf2e5-d35c-4ab6-aea5-5d1af2864160|263=1|264=1|146=1|55=USD/JPY|267=2|269=0|269=1|10=207|8=FIX.4.4|9=172|35=V|34=4|49=QUICKFIX_USER1|52=20170619-09:08:41.347|56=QUICKFIX|57=QUICKFIX_GROUP1|262=e502e5e7-1afd-4f66-b3e2-4c937f7c5d76|263=1|264=1|146=1|55=USD/CHF|267=2|269=0|269=1|10=108|8=FIX.4.4|9=172|35=V|34=5|49=QUICKFIX_USER1|52=20170619-09:08:41.348|56=QUICKFIX|57=QUICKFIX_GROUP1|262=973060f7-cb13-45f4-8e46-39258930c247|263=1|264=1|146=1|55=EUR/JPY|267=2|269=0|269=1|10=064|8=FIX.4.4|9=84|35=0|34=6|49=QUICKFIX_USER1|52=20170619-09:08:56.378|56=QUICKFIX|57=QUICKFIX_GROUP1|10=183|8=FIX.4.4|9=84|35=0|34=7|49=QUICKFIX_USER1|52=20170619-09:09:11.378|56=QUICKFIX|57=QUICKFIX_GROUP1|10=176|